{
  "contractName": "Escrow",
  "abi": [
    {
      "inputs": [
        {
          "internalType": "address",
          "name": "_supplier",
          "type": "address"
        },
        {
          "internalType": "address",
          "name": "_distributor",
          "type": "address"
        },
        {
          "internalType": "address",
          "name": "_carrier",
          "type": "address"
        }
      ],
      "stateMutability": "nonpayable",
      "type": "constructor"
    },
    {
      "anonymous": false,
      "inputs": [
        {
          "indexed": false,
          "internalType": "string",
          "name": "message",
          "type": "string"
        }
      ],
      "name": "Log",
      "type": "event"
    },
    {
      "anonymous": false,
      "inputs": [
        {
          "indexed": false,
          "internalType": "string",
          "name": "message",
          "type": "string"
        },
        {
          "indexed": false,
          "internalType": "address",
          "name": "addr",
          "type": "address"
        }
      ],
      "name": "LogAddress",
      "type": "event"
    },
    {
      "anonymous": false,
      "inputs": [
        {
          "indexed": false,
          "internalType": "string",
          "name": "message",
          "type": "string"
        },
        {
          "indexed": false,
          "internalType": "bool",
          "name": "value",
          "type": "bool"
        }
      ],
      "name": "LogBool",
      "type": "event"
    },
    {
      "anonymous": false,
      "inputs": [
        {
          "indexed": false,
          "internalType": "string",
          "name": "message",
          "type": "string"
        },
        {
          "indexed": false,
          "internalType": "uint256",
          "name": "value",
          "type": "uint256"
        }
      ],
      "name": "LogUint",
      "type": "event"
    },
    {
      "inputs": [],
      "name": "carrier",
      "outputs": [
        {
          "internalType": "address",
          "name": "",
          "type": "address"
        }
      ],
      "stateMutability": "view",
      "type": "function"
    },
    {
      "inputs": [],
      "name": "distributor",
      "outputs": [
        {
          "internalType": "address",
          "name": "",
          "type": "address"
        }
      ],
      "stateMutability": "view",
      "type": "function"
    },
    {
      "inputs": [],
      "name": "escrowAmount",
      "outputs": [
        {
          "internalType": "uint256",
          "name": "",
          "type": "uint256"
        }
      ],
      "stateMutability": "view",
      "type": "function"
    },
    {
      "inputs": [],
      "name": "isCarrierConfirmedReceipt",
      "outputs": [
        {
          "internalType": "bool",
          "name": "",
          "type": "bool"
        }
      ],
      "stateMutability": "view",
      "type": "function"
    },
    {
      "inputs": [],
      "name": "isDistributorConfirmedReceipt",
      "outputs": [
        {
          "internalType": "bool",
          "name": "",
          "type": "bool"
        }
      ],
      "stateMutability": "view",
      "type": "function"
    },
    {
      "inputs": [],
      "name": "isOrderApproved",
      "outputs": [
        {
          "internalType": "bool",
          "name": "",
          "type": "bool"
        }
      ],
      "stateMutability": "view",
      "type": "function"
    },
    {
      "inputs": [],
      "name": "isProductDelivered",
      "outputs": [
        {
          "internalType": "bool",
          "name": "",
          "type": "bool"
        }
      ],
      "stateMutability": "view",
      "type": "function"
    },
    {
      "inputs": [],
      "name": "isProductHandedToCarrier",
      "outputs": [
        {
          "internalType": "bool",
          "name": "",
          "type": "bool"
        }
      ],
      "stateMutability": "view",
      "type": "function"
    },
    {
      "inputs": [],
      "name": "platform",
      "outputs": [
        {
          "internalType": "address",
          "name": "",
          "type": "address"
        }
      ],
      "stateMutability": "view",
      "type": "function"
    },
    {
      "inputs": [],
      "name": "supplier",
      "outputs": [
        {
          "internalType": "address",
          "name": "",
          "type": "address"
        }
      ],
      "stateMutability": "view",
      "type": "function"
    },
    {
      "inputs": [],
      "name": "approveOrder",
      "outputs": [],
      "stateMutability": "nonpayable",
      "type": "function"
    },
    {
      "inputs": [],
      "name": "deposit",
      "outputs": [],
      "stateMutability": "payable",
      "type": "function"
    },
    {
      "inputs": [],
      "name": "confirmProductHandoverToCarrier",
      "outputs": [],
      "stateMutability": "nonpayable",
      "type": "function"
    },
    {
      "inputs": [],
      "name": "confirmCarrierReceipt",
      "outputs": [],
      "stateMutability": "nonpayable",
      "type": "function"
    },
    {
      "inputs": [],
      "name": "confirmProductDelivery",
      "outputs": [],
      "stateMutability": "nonpayable",
      "type": "function"
    },
    {
      "inputs": [],
      "name": "confirmDistributorReceipt",
      "outputs": [],
      "stateMutability": "nonpayable",
      "type": "function"
    }
  ],
  "bytecode": "0x608060405234801562000010575f80fd5b5060405162001b8538038062001b85833981810160405281019062000036919062000340565b335f806101000a81548173ffffffffffffffffffffffffffffffffffffffff021916908373ffffffffffffffffffffffffffffffffffffffff1602179055508260015f6101000a81548173ffffffffffffffffffffffffffffffffffffffff021916908373ffffffffffffffffffffffffffffffffffffffff1602179055508160025f6101000a81548173ffffffffffffffffffffffffffffffffffffffff021916908373ffffffffffffffffffffffffffffffffffffffff1602179055508060035f6101000a81548173ffffffffffffffffffffffffffffffffffffffff021916908373ffffffffffffffffffffffffffffffffffffffff1602179055507fcf34ef537ac33ee1ac626ca1587a0a7e8e51561e5514f8cb36afa1c5102b3bab6040516200016490620003f7565b60405180910390a17f62ddffe5b5108385f7a590f100e1ee414ad9551a31f089e64e82998440785e1e5f8054906101000a900473ffffffffffffffffffffffffffffffffffffffff16604051620001bc919062000476565b60405180910390a17f62ddffe5b5108385f7a590f100e1ee414ad9551a31f089e64e82998440785e1e60015f9054906101000a900473ffffffffffffffffffffffffffffffffffffffff16604051620002169190620004f4565b60405180910390a17f62ddffe5b5108385f7a590f100e1ee414ad9551a31f089e64e82998440785e1e60025f9054906101000a900473ffffffffffffffffffffffffffffffffffffffff1660405162000270919062000572565b60405180910390a17f62ddffe5b5108385f7a590f100e1ee414ad9551a31f089e64e82998440785e1e60035f9054906101000a900473ffffffffffffffffffffffffffffffffffffffff16604051620002ca9190620005f0565b60405180910390a150505062000620565b5f80fd5b5f73ffffffffffffffffffffffffffffffffffffffff82169050919050565b5f6200030a82620002df565b9050919050565b6200031c81620002fe565b811462000327575f80fd5b50565b5f815190506200033a8162000311565b92915050565b5f805f606084860312156200035a5762000359620002db565b5b5f62000369868287016200032a565b93505060206200037c868287016200032a565b92505060406200038f868287016200032a565b9150509250925092565b5f82825260208201905092915050565b7f436f6e7374727563746f722063616c6c656400000000000000000000000000005f82015250565b5f620003df60128362000399565b9150620003ec82620003a9565b602082019050919050565b5f6020820190508181035f8301526200041081620003d1565b9050919050565b7f506c6174666f726d0000000000000000000000000000000000000000000000005f82015250565b5f6200044d60088362000399565b91506200045a8262000417565b602082019050919050565b6200047081620002fe565b82525050565b5f6040820190508181035f8301526200048f816200043f565b9050620004a0602083018462000465565b92915050565b7f537570706c6965720000000000000000000000000000000000000000000000005f82015250565b5f620004dc60088362000399565b9150620004e982620004a6565b602082019050919050565b5f6040820190508181035f8301526200050d81620004ce565b90506200051e602083018462000465565b92915050565b7f4469737472696275746f720000000000000000000000000000000000000000005f82015250565b5f6200055a600b8362000399565b9150620005678262000524565b602082019050919050565b5f6040820190508181035f8301526200058b816200054c565b90506200059c602083018462000465565b92915050565b7f43617272696572000000000000000000000000000000000000000000000000005f82015250565b5f620005d860078362000399565b9150620005e582620005a2565b602082019050919050565b5f6040820190508181035f8301526200060981620005ca565b90506200061a602083018462000465565b92915050565b611557806200062e5f395ff3fe6080604052600436106100f2575f3560e01c80638c3d0995116100895780639b956110116100585780639b9561101461029e578063bfe10928146102b4578063d0e30db0146102de578063f19caf92146102e8576100f2565b80638c3d09951461020a57806391ad37cd1461023457806396b9d7951461025e578063975722f214610288576100f2565b806336da4468116100c557806336da44681461017657806338e174ed146101a057806347a7846f146101b65780634bde38c8146101e0576100f2565b806314b65d76146100f65780632955ea9c1461010c5780632af3e714146101225780632bdc32ff1461014c575b5f80fd5b348015610101575f80fd5b5061010a610312565b005b348015610117575f80fd5b506101206103f3565b005b34801561012d575f80fd5b50610136610523565b6040516101439190610c27565b60405180910390f35b348015610157575f80fd5b50610160610536565b60405161016d9190610c7f565b60405180910390f35b348015610181575f80fd5b5061018a61055b565b6040516101979190610c7f565b60405180910390f35b3480156101ab575f80fd5b506101b4610580565b005b3480156101c1575f80fd5b506101ca610660565b6040516101d79190610cb0565b60405180910390f35b3480156101eb575f80fd5b506101f4610666565b6040516102019190610c7f565b60405180910390f35b348015610215575f80fd5b5061021e610689565b60405161022b9190610c27565b60405180910390f35b34801561023f575f80fd5b5061024861069b565b6040516102559190610c27565b60405180910390f35b348015610269575f80fd5b506102726106ae565b60405161027f9190610c27565b60405180910390f35b348015610293575f80fd5b5061029c6106c1565b005b3480156102a9575f80fd5b506102b26107f1565b005b3480156102bf575f80fd5b506102c8610929565b6040516102d59190610c7f565b60405180910390f35b6102e661094e565b005b3480156102f3575f80fd5b506102fc610abe565b6040516103099190610c27565b60405180910390f35b60015f9054906101000a900473ffffffffffffffffffffffffffffffffffffffff1673ffffffffffffffffffffffffffffffffffffffff163373ffffffffffffffffffffffffffffffffffffffff16146103a1576040517f08c379a000000000000000000000000000000000000000000000000000000000815260040161039890610d49565b60405180910390fd5b6001600560016101000a81548160ff0219169083151502179055507fcf34ef537ac33ee1ac626ca1587a0a7e8e51561e5514f8cb36afa1c5102b3bab6040516103e990610db1565b60405180910390a1565b60035f9054906101000a900473ffffffffffffffffffffffffffffffffffffffff1673ffffffffffffffffffffffffffffffffffffffff163373ffffffffffffffffffffffffffffffffffffffff1614610482576040517f08c379a000000000000000000000000000000000000000000000000000000000815260040161047990610e3f565b60405180910390fd5b600560019054906101000a900460ff166104d1576040517f08c379a00000000000000000000000000000000000000000000000000000000081526004016104c890610ecd565b60405180910390fd5b6001600560026101000a81548160ff0219169083151502179055507fcf34ef537ac33ee1ac626ca1587a0a7e8e51561e5514f8cb36afa1c5102b3bab60405161051990610f35565b60405180910390a1565b600560049054906101000a900460ff1681565b60035f9054906101000a900473ffffffffffffffffffffffffffffffffffffffff1681565b60015f9054906101000a900473ffffffffffffffffffffffffffffffffffffffff1681565b60015f9054906101000a900473ffffffffffffffffffffffffffffffffffffffff1673ffffffffffffffffffffffffffffffffffffffff163373ffffffffffffffffffffffffffffffffffffffff161461060f576040517f08c379a000000000000000000000000000000000000000000000000000000000815260040161060690610d49565b60405180910390fd5b600160055f6101000a81548160ff0219169083151502179055507fcf34ef537ac33ee1ac626ca1587a0a7e8e51561e5514f8cb36afa1c5102b3bab60405161065690610f9d565b60405180910390a1565b60045481565b5f8054906101000a900473ffffffffffffffffffffffffffffffffffffffff1681565b60055f9054906101000a900460ff1681565b600560039054906101000a900460ff1681565b600560029054906101000a900460ff1681565b60035f9054906101000a900473ffffffffffffffffffffffffffffffffffffffff1673ffffffffffffffffffffffffffffffffffffffff163373ffffffffffffffffffffffffffffffffffffffff1614610750576040517f08c379a000000000000000000000000000000000000000000000000000000000815260040161074790610e3f565b60405180910390fd5b600560029054906101000a900460ff1661079f576040517f08c379a00000000000000000000000000000000000000000000000000000000081526004016107969061102b565b60405180910390fd5b6001600560036101000a81548160ff0219169083151502179055507fcf34ef537ac33ee1ac626ca1587a0a7e8e51561e5514f8cb36afa1c5102b3bab6040516107e790611093565b60405180910390a1565b60025f9054906101000a900473ffffffffffffffffffffffffffffffffffffffff1673ffffffffffffffffffffffffffffffffffffffff163373ffffffffffffffffffffffffffffffffffffffff1614610880576040517f08c379a000000000000000000000000000000000000000000000000000000000815260040161087790611121565b60405180910390fd5b600560039054906101000a900460ff166108cf576040517f08c379a00000000000000000000000000000000000000000000000000000000081526004016108c690611189565b60405180910390fd5b6001600560046101000a81548160ff0219169083151502179055506108f2610ad1565b7fcf34ef537ac33ee1ac626ca1587a0a7e8e51561e5514f8cb36afa1c5102b3bab60405161091f906111f1565b60405180910390a1565b60025f9054906101000a900473ffffffffffffffffffffffffffffffffffffffff1681565b60025f9054906101000a900473ffffffffffffffffffffffffffffffffffffffff1673ffffffffffffffffffffffffffffffffffffffff163373ffffffffffffffffffffffffffffffffffffffff16146109dd576040517f08c379a00000000000000000000000000000000000000000000000000000000081526004016109d490611121565b60405180910390fd5b60055f9054906101000a900460ff16610a2b576040517f08c379a0000000000000000000000000000000000000000000000000000000008152600401610a2290611259565b60405180910390fd5b5f3411610a6d576040517f08c379a0000000000000000000000000000000000000000000000000000000008152600401610a64906112c1565b60405180910390fd5b3460045f828254610a7e919061130c565b925050819055507f941296a39ea107bde685522318a4b6c2b544904a5dd82a512748ca2cf839bef734604051610ab49190611389565b60405180910390a1565b600560019054906101000a900460ff1681565b600560049054906101000a900460ff16610b20576040517f08c379a0000000000000000000000000000000000000000000000000000000008152600401610b1790611425565b60405180910390fd5b5f60045411610b64576040517f08c379a0000000000000000000000000000000000000000000000000000000008152600401610b5b9061148d565b60405180910390fd5b60015f9054906101000a900473ffffffffffffffffffffffffffffffffffffffff1673ffffffffffffffffffffffffffffffffffffffff166108fc60045490811502906040515f60405180830381858888f19350505050158015610bca573d5f803e3d5ffd5b505f6004819055507f941296a39ea107bde685522318a4b6c2b544904a5dd82a512748ca2cf839bef7600454604051610c0391906114f5565b60405180910390a1565b5f8115159050919050565b610c2181610c0d565b82525050565b5f602082019050610c3a5f830184610c18565b92915050565b5f73ffffffffffffffffffffffffffffffffffffffff82169050919050565b5f610c6982610c40565b9050919050565b610c7981610c5f565b82525050565b5f602082019050610c925f830184610c70565b92915050565b5f819050919050565b610caa81610c98565b82525050565b5f602082019050610cc35f830184610ca1565b92915050565b5f82825260208201905092915050565b7f4f6e6c7920737570706c6965722063616e2063616c6c20746869732066756e635f8201527f74696f6e00000000000000000000000000000000000000000000000000000000602082015250565b5f610d33602483610cc9565b9150610d3e82610cd9565b604082019050919050565b5f6020820190508181035f830152610d6081610d27565b9050919050565b7f50726f647563742068616e64656420746f2063617272696572000000000000005f82015250565b5f610d9b601983610cc9565b9150610da682610d67565b602082019050919050565b5f6020820190508181035f830152610dc881610d8f565b9050919050565b7f4f6e6c7920636172726965722063616e2063616c6c20746869732066756e63745f8201527f696f6e0000000000000000000000000000000000000000000000000000000000602082015250565b5f610e29602383610cc9565b9150610e3482610dcf565b604082019050919050565b5f6020820190508181035f830152610e5681610e1d565b9050919050565b7f50726f64756374206e6f742068616e64656420746f20636172726965722062795f8201527f20737570706c6965720000000000000000000000000000000000000000000000602082015250565b5f610eb7602983610cc9565b9150610ec282610e5d565b604082019050919050565b5f6020820190508181035f830152610ee481610eab565b9050919050565b7f4361727269657220636f6e6669726d65642072656365697074000000000000005f82015250565b5f610f1f601983610cc9565b9150610f2a82610eeb565b602082019050919050565b5f6020820190508181035f830152610f4c81610f13565b9050919050565b7f4f7264657220617070726f7665640000000000000000000000000000000000005f82015250565b5f610f87600e83610cc9565b9150610f9282610f53565b602082019050919050565b5f6020820190508181035f830152610fb481610f7b565b9050919050565b7f4361727269657220686173206e6f7420636f6e6669726d6564207265636569705f8201527f74206f66207468652070726f6475637400000000000000000000000000000000602082015250565b5f611015603083610cc9565b915061102082610fbb565b604082019050919050565b5f6020820190508181035f83015261104281611009565b9050919050565b7f50726f647563742064656c6976657265642062792063617272696572000000005f82015250565b5f61107d601c83610cc9565b915061108882611049565b602082019050919050565b5f6020820190508181035f8301526110aa81611071565b9050919050565b7f4f6e6c79206469737472696275746f722063616e2063616c6c207468697320665f8201527f756e6374696f6e00000000000000000000000000000000000000000000000000602082015250565b5f61110b602783610cc9565b9150611116826110b1565b604082019050919050565b5f6020820190508181035f830152611138816110ff565b9050919050565b7f50726f64756374206e6f742064656c69766572656420627920636172726965725f82015250565b5f611173602083610cc9565b915061117e8261113f565b602082019050919050565b5f6020820190508181035f8301526111a081611167565b9050919050565b7f4469737472696275746f7220636f6e6669726d656420726563656970740000005f82015250565b5f6111db601d83610cc9565b91506111e6826111a7565b602082019050919050565b5f6020820190508181035f830152611208816111cf565b9050919050565b7f4f72646572206e6f7420617070726f76656420627920737570706c69657200005f82015250565b5f611243601e83610cc9565b915061124e8261120f565b602082019050919050565b5f6020820190508181035f83015261127081611237565b9050919050565b7f4d757374206465706f7369742066756e647300000000000000000000000000005f82015250565b5f6112ab601283610cc9565b91506112b682611277565b602082019050919050565b5f6020820190508181035f8301526112d88161129f565b9050919050565b7f4e487b71000000000000000000000000000000000000000000000000000000005f52601160045260245ffd5b5f61131682610c98565b915061132183610c98565b9250828201905080821115611339576113386112df565b5b92915050565b7f46756e6473206465706f736974656400000000000000000000000000000000005f82015250565b5f611373600f83610cc9565b915061137e8261133f565b602082019050919050565b5f6040820190508181035f8301526113a081611367565b90506113af6020830184610ca1565b92915050565b7f4469737472696275746f7220686173206e6f7420636f6e6669726d65642072655f8201527f6365697074000000000000000000000000000000000000000000000000000000602082015250565b5f61140f602583610cc9565b915061141a826113b5565b604082019050919050565b5f6020820190508181035f83015261143c81611403565b9050919050565b7f4e6f2066756e647320746f2072656c65617365000000000000000000000000005f82015250565b5f611477601383610cc9565b915061148282611443565b602082019050919050565b5f6020820190508181035f8301526114a48161146b565b9050919050565b7f46756e64732072656c65617365640000000000000000000000000000000000005f82015250565b5f6114df600e83610cc9565b91506114ea826114ab565b602082019050919050565b5f6040820190508181035f83015261150c816114d3565b905061151b6020830184610ca1565b9291505056fea2646970667358221220e2e5e575eb908c3b2da26e4726cda5ac47c0829e68acd97334bb2bf006bc4abc64736f6c63430008150033",
  "immutableReferences": {},
  "source": "// contracts/Escrow.sol\npragma solidity ^0.8.0;\n\ncontract Escrow {\n    address public platform;\n    address public supplier;\n    address public distributor;\n    address public carrier;\n    uint256 public escrowAmount;\n    bool public isOrderApproved;\n    bool public isProductHandedToCarrier;\n    bool public isCarrierConfirmedReceipt;\n    bool public isProductDelivered;\n    bool public isDistributorConfirmedReceipt;\n\n    event Log(string message);\n    event LogAddress(string message, address addr);\n    event LogBool(string message, bool value);\n    event LogUint(string message, uint value);\n\n    constructor(address _supplier, address _distributor, address _carrier) {\n        platform = msg.sender;\n        supplier = _supplier;\n        distributor = _distributor;\n        carrier = _carrier;\n\n        emit Log(\"Constructor called\");\n        emit LogAddress(\"Platform\", platform);\n        emit LogAddress(\"Supplier\", supplier);\n        emit LogAddress(\"Distributor\", distributor);\n        emit LogAddress(\"Carrier\", carrier);\n    }\n\n    // Approve order by supplier\n    function approveOrder() external onlySupplier {\n        isOrderApproved = true;\n        emit Log(\"Order approved\");\n    }\n\n    // Deposit funds into the escrow by distributor\n    function deposit() external payable onlyDistributor {\n        require(isOrderApproved, \"Order not approved by supplier\");\n        require(msg.value > 0, \"Must deposit funds\");\n        escrowAmount += msg.value;\n        emit LogUint(\"Funds deposited\", msg.value);\n    }\n\n    // Confirm product handover to carrier by supplier\n    function confirmProductHandoverToCarrier() external onlySupplier {\n        isProductHandedToCarrier = true;\n        emit Log(\"Product handed to carrier\");\n    }\n\n    // Confirm receipt of product by carrier\n    function confirmCarrierReceipt() external onlyCarrier {\n        require(isProductHandedToCarrier, \"Product not handed to carrier by supplier\");\n        isCarrierConfirmedReceipt = true;\n        emit Log(\"Carrier confirmed receipt\");\n    }\n\n    // Confirm product delivery by carrier\n    function confirmProductDelivery() external onlyCarrier {\n        require(isCarrierConfirmedReceipt, \"Carrier has not confirmed receipt of the product\");\n        isProductDelivered = true;\n        emit Log(\"Product delivered by carrier\");\n    }\n\n    // Confirm receipt of product by distributor\n    function confirmDistributorReceipt() external onlyDistributor {\n        require(isProductDelivered, \"Product not delivered by carrier\");\n        isDistributorConfirmedReceipt = true;\n        releaseFunds();\n        emit Log(\"Distributor confirmed receipt\");\n    }\n\n    // Release funds to the supplier upon confirmation of delivery and receipt\n    function releaseFunds() internal {\n        require(isDistributorConfirmedReceipt, \"Distributor has not confirmed receipt\");\n        require(escrowAmount > 0, \"No funds to release\");\n        payable(supplier).transfer(escrowAmount);\n        escrowAmount = 0;\n        emit LogUint(\"Funds released\", escrowAmount);\n    }\n\n    modifier onlyPlatform() {\n        require(msg.sender == platform, \"Only platform can call this function\");\n        _;\n    }\n\n    modifier onlySupplier() {\n        require(msg.sender == supplier, \"Only supplier can call this function\");\n        _;\n    }\n\n    modifier onlyDistributor() {\n        require(msg.sender == distributor, \"Only distributor can call this function\");\n        _;\n    }\n\n    modifier onlyCarrier() {\n        require(msg.sender == carrier, \"Only carrier can call this function\");\n        _;\n    }\n}\n",
  "sourcePath": "/home/ramatich/Moconnect Platinum/Moconnect-pay/escrow/contracts/Escrow.sol",
  "compiler": {
    "name": "solc",
    "version": "0.8.21+commit.d9974bed.Emscripten.clang"
  },
  "schemaVersion": "3.4.16",
  "updatedAt": "2024-05-18T15:56:37.308Z",
  "devdoc": {
    "kind": "dev",
    "methods": {},
    "version": 1
  },
  "userdoc": {
    "kind": "user",
    "methods": {},
    "version": 1
  }
}