{
  "contractName": "Escrow",
  "abi": [
    {
      "inputs": [
        {
          "internalType": "address",
          "name": "_supplier",
          "type": "address"
        },
        {
          "internalType": "address",
          "name": "_distributor",
          "type": "address"
        },
        {
          "internalType": "address",
          "name": "_carrier",
          "type": "address"
        }
      ],
      "stateMutability": "nonpayable",
      "type": "constructor"
    },
    {
      "inputs": [],
      "name": "carrier",
      "outputs": [
        {
          "internalType": "address",
          "name": "",
          "type": "address"
        }
      ],
      "stateMutability": "view",
      "type": "function"
    },
    {
      "inputs": [],
      "name": "distributor",
      "outputs": [
        {
          "internalType": "address",
          "name": "",
          "type": "address"
        }
      ],
      "stateMutability": "view",
      "type": "function"
    },
    {
      "inputs": [],
      "name": "escrowAmount",
      "outputs": [
        {
          "internalType": "uint256",
          "name": "",
          "type": "uint256"
        }
      ],
      "stateMutability": "view",
      "type": "function"
    },
    {
      "inputs": [],
      "name": "isCarrierConfirmedReceipt",
      "outputs": [
        {
          "internalType": "bool",
          "name": "",
          "type": "bool"
        }
      ],
      "stateMutability": "view",
      "type": "function"
    },
    {
      "inputs": [],
      "name": "isDistributorConfirmedReceipt",
      "outputs": [
        {
          "internalType": "bool",
          "name": "",
          "type": "bool"
        }
      ],
      "stateMutability": "view",
      "type": "function"
    },
    {
      "inputs": [],
      "name": "isOrderApproved",
      "outputs": [
        {
          "internalType": "bool",
          "name": "",
          "type": "bool"
        }
      ],
      "stateMutability": "view",
      "type": "function"
    },
    {
      "inputs": [],
      "name": "isProductDelivered",
      "outputs": [
        {
          "internalType": "bool",
          "name": "",
          "type": "bool"
        }
      ],
      "stateMutability": "view",
      "type": "function"
    },
    {
      "inputs": [],
      "name": "isProductHandedToCarrier",
      "outputs": [
        {
          "internalType": "bool",
          "name": "",
          "type": "bool"
        }
      ],
      "stateMutability": "view",
      "type": "function"
    },
    {
      "inputs": [],
      "name": "platform",
      "outputs": [
        {
          "internalType": "address",
          "name": "",
          "type": "address"
        }
      ],
      "stateMutability": "view",
      "type": "function"
    },
    {
      "inputs": [],
      "name": "supplier",
      "outputs": [
        {
          "internalType": "address",
          "name": "",
          "type": "address"
        }
      ],
      "stateMutability": "view",
      "type": "function"
    },
    {
      "inputs": [],
      "name": "approveOrder",
      "outputs": [],
      "stateMutability": "nonpayable",
      "type": "function"
    },
    {
      "inputs": [],
      "name": "deposit",
      "outputs": [],
      "stateMutability": "payable",
      "type": "function"
    },
    {
      "inputs": [],
      "name": "confirmProductHandoverToCarrier",
      "outputs": [],
      "stateMutability": "nonpayable",
      "type": "function"
    },
    {
      "inputs": [],
      "name": "confirmCarrierReceipt",
      "outputs": [],
      "stateMutability": "nonpayable",
      "type": "function"
    },
    {
      "inputs": [],
      "name": "confirmProductDelivery",
      "outputs": [],
      "stateMutability": "nonpayable",
      "type": "function"
    },
    {
      "inputs": [],
      "name": "confirmDistributorReceipt",
      "outputs": [],
      "stateMutability": "nonpayable",
      "type": "function"
    }
  ],
  "bytecode": "0x608060405234801562000010575f80fd5b50604051620012f4380380620012f48339818101604052810190620000369190620001a3565b335f806101000a81548173ffffffffffffffffffffffffffffffffffffffff021916908373ffffffffffffffffffffffffffffffffffffffff1602179055508260015f6101000a81548173ffffffffffffffffffffffffffffffffffffffff021916908373ffffffffffffffffffffffffffffffffffffffff1602179055508160025f6101000a81548173ffffffffffffffffffffffffffffffffffffffff021916908373ffffffffffffffffffffffffffffffffffffffff1602179055508060035f6101000a81548173ffffffffffffffffffffffffffffffffffffffff021916908373ffffffffffffffffffffffffffffffffffffffff160217905550505050620001fc565b5f80fd5b5f73ffffffffffffffffffffffffffffffffffffffff82169050919050565b5f6200016d8262000142565b9050919050565b6200017f8162000161565b81146200018a575f80fd5b50565b5f815190506200019d8162000174565b92915050565b5f805f60608486031215620001bd57620001bc6200013e565b5b5f620001cc868287016200018d565b9350506020620001df868287016200018d565b9250506040620001f2868287016200018d565b9150509250925092565b6110ea806200020a5f395ff3fe6080604052600436106100f2575f3560e01c80638c3d0995116100895780639b956110116100585780639b9561101461029e578063bfe10928146102b4578063d0e30db0146102de578063f19caf92146102e8576100f2565b80638c3d09951461020a57806391ad37cd1461023457806396b9d7951461025e578063975722f214610288576100f2565b806336da4468116100c557806336da44681461017657806338e174ed146101a057806347a7846f146101b65780634bde38c8146101e0576100f2565b806314b65d76146100f65780632955ea9c1461010c5780632af3e714146101225780632bdc32ff1461014c575b5f80fd5b348015610101575f80fd5b5061010a610312565b005b348015610117575f80fd5b506101206103be565b005b34801561012d575f80fd5b506101366104b9565b6040516101439190610aae565b60405180910390f35b348015610157575f80fd5b506101606104cc565b60405161016d9190610b06565b60405180910390f35b348015610181575f80fd5b5061018a6104f1565b6040516101979190610b06565b60405180910390f35b3480156101ab575f80fd5b506101b4610516565b005b3480156101c1575f80fd5b506101ca6105c1565b6040516101d79190610b37565b60405180910390f35b3480156101eb575f80fd5b506101f46105c7565b6040516102019190610b06565b60405180910390f35b348015610215575f80fd5b5061021e6105ea565b60405161022b9190610aae565b60405180910390f35b34801561023f575f80fd5b506102486105fc565b6040516102559190610aae565b60405180910390f35b348015610269575f80fd5b5061027261060f565b60405161027f9190610aae565b60405180910390f35b348015610293575f80fd5b5061029c610622565b005b3480156102a9575f80fd5b506102b261071d565b005b3480156102bf575f80fd5b506102c8610820565b6040516102d59190610b06565b60405180910390f35b6102e6610845565b005b3480156102f3575f80fd5b506102fc61097e565b6040516103099190610aae565b60405180910390f35b60015f9054906101000a900473ffffffffffffffffffffffffffffffffffffffff1673ffffffffffffffffffffffffffffffffffffffff163373ffffffffffffffffffffffffffffffffffffffff16146103a1576040517f08c379a000000000000000000000000000000000000000000000000000000000815260040161039890610bd0565b60405180910390fd5b6001600560016101000a81548160ff021916908315150217905550565b60035f9054906101000a900473ffffffffffffffffffffffffffffffffffffffff1673ffffffffffffffffffffffffffffffffffffffff163373ffffffffffffffffffffffffffffffffffffffff161461044d576040517f08c379a000000000000000000000000000000000000000000000000000000000815260040161044490610c5e565b60405180910390fd5b600560019054906101000a900460ff1661049c576040517f08c379a000000000000000000000000000000000000000000000000000000000815260040161049390610cec565b60405180910390fd5b6001600560026101000a81548160ff021916908315150217905550565b600560049054906101000a900460ff1681565b60035f9054906101000a900473ffffffffffffffffffffffffffffffffffffffff1681565b60015f9054906101000a900473ffffffffffffffffffffffffffffffffffffffff1681565b60015f9054906101000a900473ffffffffffffffffffffffffffffffffffffffff1673ffffffffffffffffffffffffffffffffffffffff163373ffffffffffffffffffffffffffffffffffffffff16146105a5576040517f08c379a000000000000000000000000000000000000000000000000000000000815260040161059c90610bd0565b60405180910390fd5b600160055f6101000a81548160ff021916908315150217905550565b60045481565b5f8054906101000a900473ffffffffffffffffffffffffffffffffffffffff1681565b60055f9054906101000a900460ff1681565b600560039054906101000a900460ff1681565b600560029054906101000a900460ff1681565b60035f9054906101000a900473ffffffffffffffffffffffffffffffffffffffff1673ffffffffffffffffffffffffffffffffffffffff163373ffffffffffffffffffffffffffffffffffffffff16146106b1576040517f08c379a00000000000000000000000000000000000000000000000000000000081526004016106a890610c5e565b60405180910390fd5b600560029054906101000a900460ff16610700576040517f08c379a00000000000000000000000000000000000000000000000000000000081526004016106f790610d7a565b60405180910390fd5b6001600560036101000a81548160ff021916908315150217905550565b60025f9054906101000a900473ffffffffffffffffffffffffffffffffffffffff1673ffffffffffffffffffffffffffffffffffffffff163373ffffffffffffffffffffffffffffffffffffffff16146107ac576040517f08c379a00000000000000000000000000000000000000000000000000000000081526004016107a390610e08565b60405180910390fd5b600560039054906101000a900460ff166107fb576040517f08c379a00000000000000000000000000000000000000000000000000000000081526004016107f290610e70565b60405180910390fd5b6001600560046101000a81548160ff02191690831515021790555061081e610991565b565b60025f9054906101000a900473ffffffffffffffffffffffffffffffffffffffff1681565b60025f9054906101000a900473ffffffffffffffffffffffffffffffffffffffff1673ffffffffffffffffffffffffffffffffffffffff163373ffffffffffffffffffffffffffffffffffffffff16146108d4576040517f08c379a00000000000000000000000000000000000000000000000000000000081526004016108cb90610e08565b60405180910390fd5b60055f9054906101000a900460ff16610922576040517f08c379a000000000000000000000000000000000000000000000000000000000815260040161091990610ed8565b60405180910390fd5b5f3411610964576040517f08c379a000000000000000000000000000000000000000000000000000000000815260040161095b90610f40565b60405180910390fd5b3460045f8282546109759190610f8b565b92505081905550565b600560019054906101000a900460ff1681565b600560049054906101000a900460ff166109e0576040517f08c379a00000000000000000000000000000000000000000000000000000000081526004016109d79061102e565b60405180910390fd5b5f60045411610a24576040517f08c379a0000000000000000000000000000000000000000000000000000000008152600401610a1b90611096565b60405180910390fd5b60015f9054906101000a900473ffffffffffffffffffffffffffffffffffffffff1673ffffffffffffffffffffffffffffffffffffffff166108fc60045490811502906040515f60405180830381858888f19350505050158015610a8a573d5f803e3d5ffd5b505f600481905550565b5f8115159050919050565b610aa881610a94565b82525050565b5f602082019050610ac15f830184610a9f565b92915050565b5f73ffffffffffffffffffffffffffffffffffffffff82169050919050565b5f610af082610ac7565b9050919050565b610b0081610ae6565b82525050565b5f602082019050610b195f830184610af7565b92915050565b5f819050919050565b610b3181610b1f565b82525050565b5f602082019050610b4a5f830184610b28565b92915050565b5f82825260208201905092915050565b7f4f6e6c7920737570706c6965722063616e2063616c6c20746869732066756e635f8201527f74696f6e00000000000000000000000000000000000000000000000000000000602082015250565b5f610bba602483610b50565b9150610bc582610b60565b604082019050919050565b5f6020820190508181035f830152610be781610bae565b9050919050565b7f4f6e6c7920636172726965722063616e2063616c6c20746869732066756e63745f8201527f696f6e0000000000000000000000000000000000000000000000000000000000602082015250565b5f610c48602383610b50565b9150610c5382610bee565b604082019050919050565b5f6020820190508181035f830152610c7581610c3c565b9050919050565b7f50726f64756374206e6f742068616e64656420746f20636172726965722062795f8201527f20737570706c6965720000000000000000000000000000000000000000000000602082015250565b5f610cd6602983610b50565b9150610ce182610c7c565b604082019050919050565b5f6020820190508181035f830152610d0381610cca565b9050919050565b7f4361727269657220686173206e6f7420636f6e6669726d6564207265636569705f8201527f74206f66207468652070726f6475637400000000000000000000000000000000602082015250565b5f610d64603083610b50565b9150610d6f82610d0a565b604082019050919050565b5f6020820190508181035f830152610d9181610d58565b9050919050565b7f4f6e6c79206469737472696275746f722063616e2063616c6c207468697320665f8201527f756e6374696f6e00000000000000000000000000000000000000000000000000602082015250565b5f610df2602783610b50565b9150610dfd82610d98565b604082019050919050565b5f6020820190508181035f830152610e1f81610de6565b9050919050565b7f50726f64756374206e6f742064656c69766572656420627920636172726965725f82015250565b5f610e5a602083610b50565b9150610e6582610e26565b602082019050919050565b5f6020820190508181035f830152610e8781610e4e565b9050919050565b7f4f72646572206e6f7420617070726f76656420627920737570706c69657200005f82015250565b5f610ec2601e83610b50565b9150610ecd82610e8e565b602082019050919050565b5f6020820190508181035f830152610eef81610eb6565b9050919050565b7f4d757374206465706f7369742066756e647300000000000000000000000000005f82015250565b5f610f2a601283610b50565b9150610f3582610ef6565b602082019050919050565b5f6020820190508181035f830152610f5781610f1e565b9050919050565b7f4e487b71000000000000000000000000000000000000000000000000000000005f52601160045260245ffd5b5f610f9582610b1f565b9150610fa083610b1f565b9250828201905080821115610fb857610fb7610f5e565b5b92915050565b7f4469737472696275746f7220686173206e6f7420636f6e6669726d65642072655f8201527f6365697074000000000000000000000000000000000000000000000000000000602082015250565b5f611018602583610b50565b915061102382610fbe565b604082019050919050565b5f6020820190508181035f8301526110458161100c565b9050919050565b7f4e6f2066756e647320746f2072656c65617365000000000000000000000000005f82015250565b5f611080601383610b50565b915061108b8261104c565b602082019050919050565b5f6020820190508181035f8301526110ad81611074565b905091905056fea2646970667358221220a62bc3aaf9db4565fa0d82dad3409c17fe18e648838caaf687a049b9547a1ab464736f6c63430008150033",
  "immutableReferences": {},
  "source": "// contracts/Escrow.sol\npragma solidity ^0.8.0;\n\ncontract Escrow {\n    address public platform;\n    address public supplier;\n    address public distributor;\n    address public carrier;\n    uint256 public escrowAmount;\n    bool public isOrderApproved;\n    bool public isProductHandedToCarrier;\n    bool public isCarrierConfirmedReceipt;\n    bool public isProductDelivered;\n    bool public isDistributorConfirmedReceipt;\n\n    constructor(address _supplier, address _distributor, address _carrier) {\n        platform = msg.sender;\n        supplier = _supplier;\n        distributor = _distributor;\n        carrier = _carrier;\n    }\n\n    // Approve order by supplier\n    function approveOrder() external onlySupplier {\n        isOrderApproved = true;\n    }\n\n    // Deposit funds into the escrow by distributor\n    function deposit() external payable onlyDistributor {\n        require(isOrderApproved, \"Order not approved by supplier\");\n        require(msg.value > 0, \"Must deposit funds\");\n        escrowAmount += msg.value;\n    }\n\n    // Confirm product handover to carrier by supplier\n    function confirmProductHandoverToCarrier() external onlySupplier {\n        isProductHandedToCarrier = true;\n    }\n\n    // Confirm receipt of product by carrier\n    function confirmCarrierReceipt() external onlyCarrier {\n        require(isProductHandedToCarrier, \"Product not handed to carrier by supplier\");\n        isCarrierConfirmedReceipt = true;\n    }\n\n    // Confirm product delivery by carrier\n    function confirmProductDelivery() external onlyCarrier {\n        require(isCarrierConfirmedReceipt, \"Carrier has not confirmed receipt of the product\");\n        isProductDelivered = true;\n    }\n\n    // Confirm receipt of product by distributor\n    function confirmDistributorReceipt() external onlyDistributor {\n        require(isProductDelivered, \"Product not delivered by carrier\");\n        isDistributorConfirmedReceipt = true;\n        releaseFunds();\n    }\n\n    // Release funds to the supplier upon confirmation of delivery and receipt\n    function releaseFunds() internal {\n        require(isDistributorConfirmedReceipt, \"Distributor has not confirmed receipt\");\n        require(escrowAmount > 0, \"No funds to release\");\n        payable(supplier).transfer(escrowAmount);\n        escrowAmount = 0;\n    }\n\n    modifier onlyPlatform() {\n        require(msg.sender == platform, \"Only platform can call this function\");\n        _;\n    }\n\n    modifier onlySupplier() {\n        require(msg.sender == supplier, \"Only supplier can call this function\");\n        _;\n    }\n\n    modifier onlyDistributor() {\n        require(msg.sender == distributor, \"Only distributor can call this function\");\n        _;\n    }\n\n    modifier onlyCarrier() {\n        require(msg.sender == carrier, \"Only carrier can call this function\");\n        _;\n    }\n}\n",
  "sourcePath": "/home/ramatich/Moconnect Platinum/Moconnect-pay/escrow/contracts/Escrow.sol",
  "compiler": {
    "name": "solc",
    "version": "0.8.21+commit.d9974bed.Emscripten.clang"
  },
  "schemaVersion": "3.4.16",
  "updatedAt": "2024-05-17T21:22:28.920Z",
  "devdoc": {
    "kind": "dev",
    "methods": {},
    "version": 1
  },
  "userdoc": {
    "kind": "user",
    "methods": {},
    "version": 1
  }
}